:100000008DEF00F01F6A1F5007080EE31EBE02D0DE
:100010008D9401D08D84969496908D9096908D803D
:10002000D8901E361F2AEFD712001BC01CF01AC032
:100030001DF01CC01EF0E6DF1DC01EF0E3DF120045
:100040001B6A1A6AF2DF1B6A1A6AEFDF1B6A1A6AF6
:10005000ECDF1B6A1A6AE9DF95968C8695968C967A
:1000600095988C8895988C98959A8C8A959A8C9A64
:10007000959E8C8E959E8C9E95948C8495948C9454
:100080001B681A68D2DF1B681A68CFDF959C8C8CBE
:10009000959C8C9C58EF00F0FF0E926E3C0E936E78
:1000A000F10E946E000E966E956E956A8C6AC8D7A6
:1000B000F19E066A056AC050C00B0209C06EC08E70
:1000C000C280C150C00B0C09C16E95908C90ADEFF1
:1000D00000F01AC01EF096DF1BC01EF093DF1CC09C
:1000E0001EF090DF1DC01EF08DDF95988C889598CE
:1000F0008C981200EA6A1A0EE96EEF500DE0060EB7
:10010000016E006A002EFED7012EFBD77B0E006E1B
:10011000002EFED7EF2EF3D71200F86AD09EB886D5
:10012000080EAF6E020EB06EA60EAC6E900EAB6EE9
:10013000046A0B6A0C6A0D6A0E6A176AC150C00B1A
:100140000F09C16E070EB46E0F681068116812684F
:1001500013681468156816689FD7186A196A1950C9
:10016000070810E31A6A1B6A1C6A18C01DF0B1DF89
:10017000C80E1A6EBFDFD8901834010F186E010E2A
:100180001926EDD7196A195008080DE31A6A1B6A77
:100190001C6A18C01DF09DDFC80E1A6EABDFD89028
:0A01A0001836192AF0D7DAD7030049
:020000040030CA
:0E00000027CC3E1E0087A1000FC00FE00F406E
:00000001FF
;PIC18F4550
;CRC=483E  CREATED="30-Aug-22 08:50"
