:10000000FAEF00F0F76A140FF66E000EF7220900FF
:10001000F550120080C094D4F76A280FF66E000ED7
:10002000F7220900F55012001F1111111F000000E6
:10003000000E956E966E956A8C68046805689592B8
:100040008C9295908C90086A076A11EF01F027C096
:1000500029F0286A285007080EE329BE02D08D94A3
:1000600001D08D84969496908D9096908D80D890A6
:100070002936282AEFD71200956A8C6A04B802D074
:100080008C9801D08C88959804BC02D08C9C01D0AF
:100090008C8C959C04B402D08C9401D08C84959463
:1000A00095928C8262EF00F010C027F0D0DF0FC075
:1000B00027F0CDDF0EC027F0CADF0DC027F0C7DF65
:1000C0000494DAD795968C8695968C9695928C9218
:1000D00071EF00F025500E6E0E1E26C00DF00D1EA5
:1000E000E3D712001A801AC025F024C026F0F2DFF0
:1000F0001A901AC025F024C026F0ECDF12001A94E2
:1001000023C024F0EFDF200E006E002EFED700D0BB
:1001100000001200EA6A1E0EE96EEF500DE0060EB6
:10012000016E006A002EFED7012EFBD77B0E006EFB
:10013000002EFED7EF2EF3D7B8EF00F01A901A92E8
:100140001A841A96380E236EDADF420E006E002EE5
:10015000FED700000C0E236ED2DF420E006E002E82
:10016000FED70000010E236ECADF020E1E6ED2D72C
:10017000060E236EC4DF420E006E002EFED7000076
:1001800012EF01F01A8421C024F0ACDF200E006EC3
:10019000002EFED700D000001200036A2050F2CFDC
:1001A00022F0F29E2FDF22BEF28E2124226E236ED9
:1001B000A6DFF6EF00F0500E236EA1DF1B6A1BBE18
:1001C00003D01B5007080DE3036A1B50F2CF20F049
:1001D000F29E22DF20BEF28E206E216ED3DF1B2A1C
:1001E000EED71EC020F01FC021F0D7D7020E216E1F
:1001F000C9DF1200F86AD09E066A0D6A0E6A0F6A9D
:10020000106A196AC150C00B0F09C16E070EB46E97
:1002100011681268136814681568166817681868FA
:1002200007D78CD71E6A070E1F6EC5DF010E1E6E24
:10023000070E1F6EC0DF010E1E6E050E1F6EBBDFA8
:10024000020E1E6E070E1F6EB6DF020E1E6E050E2C
:100250001F6EB1DF020E1E6E030E1F6EACDF030EAB
:100260001E6E070E1F6EA7DF030E1E6E050E1F6E9D
:10027000A2DF030E1E6E1F6E9EDF030E1E6E010EAA
:080280001F6E99DFFFD7030098
:020000040030CA
:0E00000027CC3E1E0087A1000FC00FE00F406E
:00000001FF
;PIC18F4550
;CRC=225E  CREATED="06-Oct-22 15:27"
