:10000000D1EF02F0406A405007080EE33FBE02D035
:100010008D9401D08D84969496908D9096908D803D
:10002000D8903F36402AEFD712002DC02EF02CC0BA
:100030002FF02EC03FF0E6DF2FC03FF0E3DF1200CD
:100040002D6A2C6AF2DF2D6A2C6AEFDF2D6A2C6A8A
:10005000ECDF2D6A2C6AE9DF95968C8695968C9656
:1000600095988C8895988C98959A8C8A959A8C9A64
:10007000959E8C8E959E8C9E95948C8495948C9454
:100080002D682C68D2DF2D682C68CFDF959C8C8C76
:10009000959C8C9C58EF00F0FF0E926E3C0E936E78
:1000A000F10E946E000E966E956E956A8C6AC8D7A6
:1000B000F19E066A056AC050C00B0209C06EC08E70
:1000C000C280C150C00B0C09C16E95908C90F1EFAD
:1000D00002F03BC03FF096DF3CC03FF093DF3DC0F5
:1000E0003FF090DF3EC03FF08DDF95988C8895986B
:1000F0008C981200EA6A2C0EE96EEF500DE0060EA5
:10010000016E006A002EFED7012EFBD77B0E006E1B
:10011000002EFED7EF2EF3D712001FC02DF02E6A4F
:100120002F6A306A1EC032F01FC033F0346A356A5D
:100130001DC037F01EC038F01FC039F03A6A1FC02A
:100140003BF01EC03CF01DC03DF01CC03EF0C1DFC6
:10015000320E2C6ECFDF1C1E1D1E1E1E1F1E00EF3A
:1001600003F01B6A1A6A196A186A1B5240E11A5294
:100170003EE119523CE118501F0839E31FC02DF031
:100180002E6A2F6A306A1EC032F01FC033F0346A04
:10019000356A1DC037F01EC038F01FC039F03A6A0A
:1001A0001FC03BF01EC03CF01DC03DF01CC03EF027
:1001B00090DF320E2C6E9EDFD8901C342D6E1D34D5
:1001C0002E6E1E342F6E1F34306E2D5001091C6EA2
:1001D0002EC01DF02FC01EF030C01FF0010E1826DB
:1001E000D8B0192AD8B41A2AD8B41B2ABED71B6A89
:1001F0001A6A196A186A1B5233E11A5231E119520C
:100200002FE118501F082CE31FC02DF02E6A2F6A13
:10021000306A1EC032F01FC033F0346A356A1DC028
:1002200037F01EC038F01FC039F03A6A1FC03BF0EB
:100230001EC03CF01DC03DF01CC03EF04ADF320E37
:100240002C6E58DFD8901C361D361E361F36010E18
:100250001826D8B0192AD8B41A2AD8B41B2ACBD752
:100260000AEF03F01B6A1A6A196A186A1B523EE108
:100270001A523CE119523AE118501F0837E31FC0E7
:100280002DF02E6A2F6A306A1EC032F01FC033F084
:10029000346A356A1DC037F01EC038F01FC039F00F
:1002A0003A6A1FC03BF01EC03CF01DC03DF01CC0B0
:1002B0003EF00FDF320E2C6E1DDFD8901F30306EF7
:1002C0001E302F6E1D302E6E1C301C6E2EC01DF089
:1002D0002FC01EF0305080091F6E010E1826D8B0B6
:1002E000192AD8B41A2AD8B41B2AC0D71B6A1A6A8A
:1002F000196A186A1B5233E11A5231E119522FE17F
:1003000018501F082CE31FC02DF02E6A2F6A306A88
:100310001EC032F01FC033F0346A356A1DC037F09A
:100320001EC038F01FC039F03A6A1FC03BF01EC033
:100330003CF01DC03DF01CC03EF0CBDE320E2C6EFA
:10034000D9DED8901F321E321D321C32010E182603
:10035000D8B0192AD8B41A2AD8B41B2ACBD715EF8B
:1003600003F031C034F030C035F033C036F032C065
:1003700037F034C03BF035C03CF036C03DF037C0FC
:100380003EF0A7DE12001B6A1A6A196A186A1B522D
:100390004BE11A5249E1195247E118500F0844E362
:1003A00025C02DF024C02CF021C02FF020C02EF04D
:1003B00025C031F024C030F021C033F020C032F02D
:1003C000D0DF320E2C6E96DED8902730306E26307D
:1003D0002F6E25302E6E2430246E800E2E24256E36
:1003E000000E2F20266E000E3020276ED89020346D
:1003F0002D6E21342E6E22342F6E2334306E010E7A
:100400002D24206E000E2E20216E000E2F20226E35
:10041000000E3020236E010E1826D8B0192AD8B449
:100420001A2AD8B41B2AB3D71B6A1A6A196A186A1F
:100430001B522EE11A522CE119522AE118500F08D2
:1004400027E325C02DF024C02CF021C02FF020C0C0
:100450002EF025C031F024C030F021C033F020C090
:1004600032F07FDF320E2C6E45DED89027322632F6
:1004700025322432D8902036213622362336010EFA
:100480001826D8B0192AD8B41A2AD8B41B2AD0D71B
:1004900020EF03F01B6A1A6A196A186A1B524BE1B3
:1004A0001A5249E1195247E118500F0844E325C098
:1004B0002DF024C02CF021C02FF020C02EF025C03C
:1004C00031F024C030F021C033F020C032F049DFD9
:1004D000320E2C6E0FDED89024342D6E25342E6E05
:1004E00026342F6E2734306E010E2D24246E000E1C
:1004F0002E20256E000E2F20266E000E3020276E37
:10050000D8902330306E22302F6E21302E6E203066
:10051000206E800E2E24216E000E2F20226E000EE3
:100520003020236E010E1826D8B0192AD8B41A2A02
:10053000D8B41B2AB3D71B6A1A6A196A186A1B52E5
:100540002EE11A522CE119522AE118500F0827E324
:1005500025C02DF024C02CF021C02FF020C02EF09B
:1005600025C031F024C030F021C033F020C032F07B
:10057000F8DE320E2C6EBEDDD890243625362636B7
:100580002736D8902332223221322032010E18260B
:10059000D8B0192AD8B41A2AD8B41B2AD0D72BEF2E
:1005A00003F0F86AD09EB886080EAF6E020EB06EE9
:1005B000A60EAC6E900EAB6E046A0B6A0C6A0D6AE6
:1005C0000E6A176AC150C00B0F09C16E070EB46ED8
:1005D0000F68106811681268136814681568166847
:1005E0005BD53C0E936E1F6A1E6A1D6A1C6A3B6ACD
:1005F0003C6A3D6A3E6A6DDD2B6A2A6A296A286A6E
:10060000282C06D0295204E12A5202E12B5202E0A2
:1006100084D5F6D72850020806E1295204E12A526F
:1006200002E12B5202E09DD5F5D72850030806E1E0
:10063000295204E12A5202E12B5202E013D6F5D7E7
:100640002850040806E1295204E12A5202E12B5203
:1006500002E099D6F5D72850050806E1295204E1B1
:100660002A5202E12B5202E015D7F5D7938681A6D4
:1006700006D03B6A3C6A3D6A3E6A2BDDF7D7C0D79D
:02068000030075
:020000040030CA
:0E00000027CC3E1E0087A1000FC00FE00F406E
:00000001FF
;PIC18F4550
;CRC=1590  CREATED="27-Sep-22 11:17"
