:100000000AEF01F0F76A140FF66E000EF7220900EE
:10001000F550120080C094D4F76A280FF66E000ED7
:10002000F7220900F55012001F1111111F000000E6
:1000300020002000000E956E966E956A8C6804680C
:10004000056895928C9295908C90086A076A21EFCA
:1000500001F028C02AF0296A295007080EE32ABEB9
:1000600002D08D9401D08D84969496908D90969028
:100070008D80D8902A36292AEFD71200956A8C6A8B
:1000800004B802D08C9801D08C88959804BC02D01A
:100090008C9C01D08C8C959C04B402D08C9401D0A3
:1000A0008C84959495928C8264EF00F010C028F0B7
:1000B000D0DF0FC028F0CDDF0EC028F0CADF0DC0A2
:1000C00028F0C7DF0494DAD795968C8695968C969F
:1000D00095928C9273EF00F026500E6E0E1E27C084
:1000E0000DF00D1EE3D712001A801AC026F025C0AD
:1000F00027F0F2DF1A901AC026F025C027F0ECDFB7
:1001000012001A9424C025F0EFDF200E006E002E9E
:10011000FED700D000001200EA6A1F0EE96EEF5011
:100120000DE0060E016E006A002EFED7012EFBD7F1
:100130007B0E006E002EFED7EF2EF3D712001A9022
:100140001A921A841A96380E246EDBDF420E006E65
:10015000002EFED700000C0E246ED3DF420E006E80
:10016000002EFED70000010E246ECBDF020E1F6EA4
:10017000D3DF060E246EC5DF420E006E002EFED7C2
:10018000000022EF01F01A8422C025F0ADDF200E1E
:10019000006E002EFED700D000001200036A21502E
:1001A000F2CF23F0F29E2EDF23BEF28E2224236EA6
:1001B000246EA7DF1200500E246EA3DF1B6A1BBE45
:1001C00003D01B5007080DE3036A1B50F2CF21F048
:1001D000F29E22DF21BEF28E216E226ED4DF1B2A18
:1001E000EED71FC021F020C022F0D8DF020E226E11
:1001F000CADF12000900F5520CE0F6CF1FF0F7CF6E
:1002000020F0F5CF22F0BFDF1FC0F6FF20C0F7FFC0
:10021000F1D71200F86AD09E066A0D6A0E6A0F6A5C
:10022000106A196AC150C00B0F09C16E070EB46E77
:1002300011681268136814681568166817681868DA
:10024000F9D67DD71C6A1CBE03D01C50130814E3DA
:100250001F6A1CC020F0AFDF010E1C5C1F6E216AFC
:10026000226E9CDF300EF66E000EF76EC3DF640E5A
:100270001F6E52DF1C2AE7D7130E1C6E1C50800A1B
:100280007F0814E21F6A1CC020F095DF010E1C24B9
:100290001F6E216A226E82DF320EF66E000EF76E3E
:1002A000A9DF640E1F6E38DF1C06E8D7CBD703002A
:020000040030CA
:0E00000027CC3E1E0087A1000FC00FE00F406E
:00000001FF
;PIC18F4550
;CRC=DC98  CREATED="06-Oct-22 15:51"
