:100000001CEF01F0F76A140FF66E000EF7220900DC
:10001000F550120080C094D4F76A280FF66E000ED7
:10002000F7220900F55012000A1511110A04000008
:10003000206869656E207468692074726169207433
:10004000696D2000236A235007080EE322BE02D008
:100050008D9401D08D84969496908D9096908D80FD
:10006000D8902236232AEFD712001CC01DF01BC0E7
:100070001EF01DC022F0E6DF1EC022F0E3DF1200FA
:100080001C6A1B6AF2DF1C6A1B6AEFDF1C6A1B6AB0
:10009000ECDF1C6A1B6AE9DF95968C8695968C9638
:1000A00095988C8895988C98959A8C8A959A8C9A24
:1000B000959E8C8E959E8C9E95948C8495948C9414
:1000C0001C681B68D2DF1C681B68CFDF959C8C8C7A
:1000D000959C8C9C78EF00F0FF0E926E3C0E936E18
:1000E000F10E946E000E966E956E956A8C6AC8D766
:1000F000F19E066A056AC050C00B0209C06EC08E30
:10010000C280C150C00B0C09C16E95908C903CEF21
:1001100001F00EC022F096DF0DC022F093DF0CC07C
:1001200022F090DF0BC022F08DDF95948C849594A3
:100130008C94A2EF00F020500C6E0C1E21C00BF02E
:100140000B1EE7D71200188018C020F01FC021F046
:10015000F2DF189018C020F01FC021F0ECDF120071
:1001600018941EC01FF0EFDF200E006E002EFED789
:1001700000D000001200EA6A1B0EE96EEF500DE09D
:10018000060E016E006A002EFED7012EFBD77B0EF5
:10019000006E002EFED7EF2EF3D7E9EF00F0189097
:1001A000189218841896380E1E6EDADF420E006E12
:1001B000002EFED700000C0E1E6ED2DF420E006E27
:1001C000002EFED70000010E1E6ECADF020E1B6E4F
:1001D000D2D7060E1E6EC4DF420E006E002EFED772
:1001E00000003DEF01F0036A1B50F2CF1DF0F29EBC
:1001F00009DF1DBEF28E1C241D6E1E6EB1DF1200C3
:1002000018841DC01FF09FDF200E006E002EFED749
:1002100000D0000012000900F5520CE0F6CF1BF0F0
:10022000F7CF1CF0F5CF1DF0EBDF1BC0F6FF1CC0B5
:10023000F7FFF1D745EF01F0F86AD09EB886080EB7
:10024000AF6E020EB06EA60EAC6E900EAB6E046A70
:100250000B6A0C6A0D6A0E6A176AC150C00B0F094F
:10026000C16E070EB46E0F681068116812681368CB
:1002700014681568166830D792D71B6A1C6AB3DFFA
:10028000300EF66E000EF76EC6D71A6A1ABE03D08D
:100290001A5013081FE3400E1E6E62DF196A19BE62
:1002A00003D0195007080DE3036A1950F2CF1BF071
:1002B000F29EB2DE1BBEF28E1B6E1D6EA1DF192AEE
:1002C000EED7010E1B6E1AC01CF08DDF1D6A98DF81
:0802D0001A2ADCD7FFD7030056
:020000040030CA
:0E00000027CC3E1E0087A1000FC00FE00F406E
:00000001FF
;PIC18F4550
;CRC=552E  CREATED="22-Oct-22 13:36"
