:1000000045EF04F0F76A140FF66E000EF7220900B0
:10001000F5501200C0F9A4B0999282F880908883BC
:10002000C6A1868EF76A340FF66E000EF72209001D
:10003000F55012007FBFDFEFF7FBFDFE746B7451CC
:1000400007080EE373BF02D08D9401D08D8496947F
:1000500096908D9096908D80D8907337742BEFD7B3
:1000600012005EC05FF05DC060F05FC073F0E6DF5D
:1000700060C073F0E3DF12005E6A5D6AF2DF5E6A01
:100080005D6AEFDF5E6A5D6AECDF5E6A5D6AE9DF2A
:1000900095968C8695968C9695988C8895988C9844
:1000A000959A8C8A959A8C9A959E8C8E959E8C9E0C
:1000B00095948C8495948C945E685D68D2DF5E68BC
:1000C0005D68CFDF959C8C8C959C8C9C74EF00F0C8
:1000D000FF0E926E3C0E936EF10E946E000E966EB5
:1000E000956E956A8C6AC8D7F19E066A056AC050FB
:1000F000C00B0209C06EC08EC280C150C00B0C097B
:10010000C16E95908C90B2EF04F0016A026A006AA9
:10011000036A645102E1635118E0100E656FD890D4
:1001200061376237003603366451035C02E1635184
:10013000005C07E36351005ED8A003066451035ED0
:10014000D88001360236652FEAD7120062C073F0FC
:1001500075DF61C073F072DF60C073F06FDF5FC086
:1001600073F06CDF959C8C9C959C8C8C4AEF01F015
:100170005EC062F05DC061F0646B0A0E636FC5DF44
:1001800000C05FF003C060F003C003F00050F2CF86
:1001900061F0F29E37DF61BFF28E076E5EC062F0E3
:1001A0005DC061F0646B0A0E636FAFDF02C060F088
:1001B00001C05FF002C062F001C061F0646B0A0E22
:1001C000636FA3DF00C05FF003C060F003C003F003
:1001D0000050F2CF61F0F29E15DF61BFF28E086E23
:1001E0005EC062F05DC061F0646B640E636F8DDFB2
:1001F00002C060F001C05FF002C062F001C061F0B7
:10020000646B0A0E636F81DF00C05FF003C060F0B3
:1002100003C003F00050F2CF61F0F29EF3DE61BF45
:10022000F28E096E5EC062F05DC061F0030E646F15
:10023000E80E636F6ADF02C060F001C05FF002C0C9
:1002400062F001C061F0646B0A0E636F5EDF00C094
:100250005FF003C060F003C003F00050F2CF61F024
:10026000F29ED0DE61BFF28E0A6E0A50C00809E12C
:100270000A680950C00805E109680850C00801E192
:1002800008680AC05FF009C060F008C061F007C0EC
:1002900062F05CD712006FC073F0D0DE70C073F0F4
:1002A000CDDE71C073F0CADE72C073F0C7DE959800
:1002B0008C8895988C986EEF01F068C06BF067C0E1
:1002C0006CF06AC06DF069C06EF06BC06FF06CC00E
:1002D00070F06DC071F06EC072F0DDD7120061C0B9
:1002E00063F062C064F060C066F05FC065F064C037
:1002F00068F063C067F066C06AF065C069F0DDDF72
:100300001200191E1A1E1B1E1C1E1CC062F01BC0F0
:1003100061F01AC060F019C05FF0E1DF12003E2A00
:100320001C6A1B6A1A6A196A206A1F6A1E6A010E11
:100330001D6E800E246E236A226A216A286A276A4B
:10034000266A256A2C6E2B6A2E6A010E2D6E306A83
:100350002F6A800E346E336A366A010E356E386A43
:10036000376A326A316A32C02AF031C029F0200E71
:100370003C6E3D6A100E3F6E406A3B6A446A436AB7
:10038000426A010E416E486A476A466A456E4C6889
:100390004B684A68FE0E496E010E596E5A6E800E09
:1003A000506E4F6A4E6A4D6A546E536A526A516A71
:1003B0007F0E586E5768566855683A6A396A120057
:1003C000EA6A620EE96EEF500DE0060E016E006AF9
:1003D000002EFED7012EFBD77B0E006E002EFED71F
:1003E000EF2EF3D71200615303E061C062F0E8DF43
:1003F0003B2A5BEF02F0036A6451F2CF66F0F29E93
:1004000011DE66BFF28E016E666F661F66C073F006
:1004100015DE65C066F0661F66C073F00FDE959A44
:100420008C8A959A8C9A3EEF02F06351656F651F36
:1004300065C073F003DE64C065F0651F65C073F0CE
:10044000FDDD959A8C8A959A8C9A2AEF02F0636961
:100450006469EBD744EF02F0176A1750070816E3F8
:10046000036A17500F0FE96E000E0320EA6EEFCFFC
:1004700063F017C064F063C065F0BDD7A60E006ED0
:10048000002EFED70000E3D7172AE7D74DEF02F082
:10049000626B6151625D03E2DFD7622BFAD73B2AC0
:1004A0005BEF02F0605304E15FC061F09CD703D0C2
:1004B0005FC061F0EDD71200392C0CD03A520AE13E
:1004C0001CC062F01BC061F01AC060F019C05FF080
:1004D00006DF1BD03950320804E13A5202E111DF45
:1004E00014D03950640804E13A5202E10ADF0DD019
:1004F0003950960804E13A5202E103DF06D0395040
:10050000C80803E13A5201E10ADF392AD8B43A2A8D
:100510005DC05FF05EC060F0C5DFD8EF04F03B5017
:100520001F0824E31CC062F01BC061F01AC060F019
:1005300019C05FF0D4DED8901934606F1A34616F3F
:100540001B34626F1C34636F010E6025196E000E40
:1005500061211A6E000E62211B6E000E63211C6E5B
:100560005DC05FF05EC060F09DDF18D03B503F087B
:1005700014E31CC062F01BC061F01AC060F019C027
:100580005FF0ADDED89019361A361B361C365DC0CA
:100590005FF05EC060F086DF01D0C1DEDFEF04F007
:1005A0003B501F081FE31CC062F01BC061F01AC063
:1005B00060F019C05FF093DED8901C30636F1B3081
:1005C000626F1A30616F1930196E61C01AF062C023
:1005D0001BF0800E63251C6E5DC05FF05EC060F096
:1005E00061DF18D03B503F0814E31CC062F01BC011
:1005F00061F01AC060F019C05FF071DED8901C3253
:100600001B321A3219325DC05FF05EC060F04ADF03
:1006100001D085DEE6EF04F03B500F0822E332C044
:1006200068F031C067F02AC06AF029C069F045DE81
:10063000D89031345F6E3234606F010E5F24316EBA
:10064000000E6021326ED8902A30606F2930296EFA
:10065000800E60252A6E5DC05FF05EC060F022DF14
:1006600019D03B501F0815E332C068F031C067F065
:100670002AC06AF029C069F020DED89031363236BF
:10068000D8902A3229325DC05FF05EC060F00ADF88
:1006900001D045DEEDEF04F03B500F0822E332C0FD
:1006A00068F031C067F02AC06AF029C069F005DE41
:1006B000D8903230606F3130316E800E6025326EEE
:1006C000D89029345F6E2A34606F010E5F24296E42
:1006D000000E60212A6E5DC05FF05EC060F0E2DE59
:1006E00019D03B501F0815E332C068F031C067F0E5
:1006F0002AC06AF029C069F0E0DDD8903232313288
:10070000D89029362A365DC05FF05EC060F0CADE40
:1007100001D005DEF4EF04F03CBE3DD03C500008B3
:100720003AE23D50800A006E3C50800A005C20E2B4
:1007300025501D10196E26501E101A6E27501F10BE
:100740001B6E285020101C6E1CC062F01BC061F094
:100750001AC060F019C05FF0C2DD5DC05FF05EC01E
:1007600060F0A0DED8901D361E361F3620363D2A9A
:100770003C503D5C0FE13C063D6A1CC028F01BC0AC
:1007800027F01AC026F019C025F0206A1F6A1E6AD9
:10079000010E1D6E01D0C3DDFBEF04F03CBE3DD069
:1007A0003C5000083AE23D50800A006E3C50800AFE
:1007B000005C20E225502110196E265022101A6E7E
:1007C000275023101B6E285024101C6E1CC062F092
:1007D0001BC061F01AC060F019C05FF080DD5DC021
:1007E0005FF05EC060F05EDED890243223322232A9
:1007F00021323D2A3C503D5C0FE13C063D6A1CC065
:1008000028F01BC027F01AC026F019C025F0800E72
:10081000246E236A226A216A01D081DD02EF05F08D
:10082000938881B80FD018BE0DD0185001080AE285
:100830000A0E626FC5DD938881B804D018069388CC
:1008400081A8FDD703EF05F0938A81BA0FD018BEB7
:1008500003D0185006080AE30A0E626FB1DD938ACE
:1008600081BA04D0182A938A81AAFDD704EF05F033
:10087000938681B608D018BE06D01850010803E24E
:10088000010E186E4CDD05EF05F0F86AD09EB886B3
:10089000080EAF6E020EB06EA60EAC6E900EAB6E72
:1008A000046A0B6A0C6A0D6A0E6A176A010E186EEA
:1008B0001C6A1B6A1A6A196A206A1F6A1E6A1D6E00
:1008C000800E246E236A226A216A286A276A266AB1
:1008D000256A2C6E2B6A2E6A010E2D6E306A2F6AE5
:1008E000800E346E336A366A010E356E386A376AA6
:1008F0003A6A396A3B6A200E3C6E3D6A010E3E6ED2
:10090000100E3F6E406A446A436A426A010E416EAD
:10091000486A476A466A456E4C684B684A68FE0EEC
:10092000496E800E506E4F6A4E6A4D6A546E536A1D
:10093000526A516A7F0E586E576856685568010EA4
:10094000596E5A6EC150C00B0F09C16E070EB46EBE
:100950000F681068116812681368146815681668C3
:1009600068EF00F0E80ED56ED76AD66A5B6A5BC0A6
:100970005CF05E6A5BC05DF0B8EC00F03C0E936E1C
:10098000D6505B6E5C505B5C0DE05BC05CF05E6AF9
:100990005BC05DF0B8EC00F05B50640803E2D76A1E
:1009A000010ED66E182C04D00A0E5D6E5E6A84D5D8
:1009B0001850020804E10A0E5D6E5E6AB0D5185048
:1009C000030804E10A0E5D6E5E6AEAD51850040859
:1009D00004E10A0E5D6E5E6A1FD61850050804E138
:1009E0000A0E5D6E5E6A58D61850060804E10A0EBB
:1009F0005D6E5E6A91D61850070804E10A0E5D6EBE
:0E0A00005E6ACCD60DD720D733D7BAD7030005
:020000040030CA
:0E00000027CC3E1E0087A1000FC00FE00F406E
:00000001FF
;PIC18F4550
;CRC=2DD7  CREATED="27-Sep-22 10:43"
