:10000000A6EF00F0F76A140FF66E000EF722090053
:10001000F5501200C0F9A4B0999282F880908883BC
:10002000C6A1868E000E956E966E956A8C680468E1
:10003000056895928C9295908C90086A076ABDEF3E
:1000400000F01D501E18800B206E1DAE02D01D1E2C
:100050001D2A1EAE02D01E1E1E2A1E50016A1D5CE5
:1000600003E21DC000F00CD0006A080E1F6E1D36A2
:1000700000361E50005CD8B0006E01361F2EF7D738
:1000800020AE02D0011E012A120025C027F0266AE8
:10009000265007080EE327BE02D08D9401D08D8430
:1000A000969496908D9096908D80D8902736262A9B
:1000B000EFD71200956A8C6A04B802D08C9801D0F0
:1000C0008C88959804BC02D08C9C01D08C8C959C1B
:1000D00004B402D08C9401D08C84959495928C8237
:1000E00080EF00F024C025F0D0DF23C025F0CDDF65
:1000F00022C025F0CADF21C025F0C7DF049CDAD773
:10010000959E8C9E959E8C8E95928C9290EF00F091
:1001100021681EC022F01FC023F020C024F0E2D7C7
:1001200002EF01F0EA6A1B0EE96EEF500DE0060ED9
:10013000016E006A002EFED7012EFBD77B0E006EEB
:10014000002EFED7EF2EF3D705EF01F0F86AD09E10
:10015000066A0D6A0E6A0F6A106A196AC150C00BEE
:100160000F09C16E070EB46E116812681368146827
:10017000156816681768186855D71A6A036A1A50FE
:10018000006EE8BE0306016E03BE07D003500308ED
:100190003EE303E10150E6083AE31AC01DF0640EA5
:1001A0001E6E4FDF036A0150F2CF1BF0F29E2ADF72
:1001B0001BBEF28E1B6E1AC01DF00A0E1E6E41DFB2
:1001C00001C01DF00A0E1E6E3CDF036A0050F2CF24
:1001D0001CF0F29E17DF1CBEF28E1C6E1AC01DF0C2
:1001E0000A0E1E6E2EDF036A0050F2CF1DF0F29E43
:1001F00009DF1DBEF28E1D6E1BC01EF01CC01FF05D
:10020000206E86D7320E1B6E8DD71A2AB7D7B5D778
:020210000300E9
:020000040030CA
:0E00000027CC3E1E0087A1000FC00FE00F406E
:00000001FF
;PIC18F4550
;CRC=CCE1  CREATED="22-Sep-22 14:53"
