:10000000D9EF01F0F76A140FF66E000EF72209001F
:10001000F550120080C094D4F76A280FF66E000ED7
:10002000F7220900F55012003F7FBFFF44494555B4
:10003000204B4849454E2042555A5A45522000000F
:1000400042555A5A45523A205858582C2054583A3A
:1000500059004F4E20004F464600000E956E966E9A
:10006000956A8C680468056895928C9295908C903E
:10007000086A076AF2EF01F026C028F0276A2750C5
:1000800007080EE328BE02D08D9401D08D8496948B
:1000900096908D9096908D80D8902836272AEFD70D
:1000A0001200956A8C6A04B802D08C9801D08C88B2
:1000B000959804BC02D08C9C01D08C8C959C04B487
:1000C00002D08C9401D08C84959495928C8277EF99
:1000D00000F010C026F0D0DF0FC026F0CDDF0EC03C
:1000E00026F0CADF0DC026F0C7DF0494DAD7959654
:1000F0008C8695968C9695928C9286EF00F0245083
:100100000E6E0E1E25C00DF00D1EE3D712001A80D4
:100110001AC024F023C025F0F2DF1A901AC024F090
:1001200023C025F0ECDF12001A9422C023F0EFDF89
:10013000200E006E002EFED700D000001200EA6AEA
:10014000220EE96EEF500DE0060E016E006A002EE1
:10015000FED7012EFBD77B0E006E002EFED7EF2EB2
:10016000F3D712001A901A921A841A96380E226E39
:10017000DBDF420E006E002EFED700000C0E226E5A
:10018000D3DF420E006E002EFED70000010E226E5D
:10019000CBDF020E226ED3DF060E226EC5DF420ECB
:1001A000006E002EFED70000F3EF01F0036A1F502F
:1001B000F2CF21F0F29E26DF21BEF28E2024216EA6
:1001C000226EB2DF12001A8421C023F0A0DF200EBD
:1001D000006E002EFED700D0000012000900F5527C
:1001E0000CE0F6CF1FF0F7CF20F0F5CF21F0EBDFDA
:1001F0001FC0F6FF20C0F7FFF1D71200006A016AA6
:100200002250D89023B000260032013223B20026BB
:100210000032013223B400260032013223B6002618
:100220000032013223B800260032013223BA002600
:100230000032013223BC00260032013223BE0026E8
:10024000003201325EEF01F0206820C01FF0216A09
:1002500021BE03D02150030829E3036A2150F2CFC5
:1002600022F0F29ED9DE22BEF28E936A8A6E9384C9
:1002700081B404D0030E206E19D013D0938681B6BA
:1002800004D0020E206E12D00CD0938881B804D016
:10029000010E206E0BD005D0938A81BA02D0206A5D
:1002A00005D01E0E226E4BDF212AD2D7203C01D072
:1002B00008D021C022F0040E236EA0D720500124C4
:1002C0001F6E1FC001F01200BFDF01C01BF01B3CFE
:1002D00001D00FD0010E226E32DFB6DF01C01BF05D
:1002E000B3DF01C01CF01E0E226E29DF1B501C5C08
:1002F000F7E01BC001F007EF02F0956A8C6A05BCBD
:1003000002D08C9C01D08C8C959C05B802D08C9826
:1003100001D08C88959805B402D08C9401D08C843F
:10032000959495908C80A1EF01F007C01FF008C054
:1003300020F020C026F0A0DE1FC026F09DDE059430
:10034000DCD795968C8695968C9695908C9012001D
:100350000880EBDF21EF02F022502418800B266E7C
:1003600022AE05D0211E221E212AD8B4222A24AE74
:1003700005D0231E241E232AD8B4242A2150230268
:10038000F3CF01F0F4CF00F02402F3500026225006
:100390002302F3500020026E26AE05D0011E021E7D
:1003A000012AD8B4022A3CEF02F00890BEDF4DEFDC
:1003B00002F0F86AD09E066A0D6A0E6A0F6A106A29
:1003C000196A1B6A1C6AC150C00B0F09C16E070E67
:1003D000B46E116812681368146815681668176897
:1003E00018683BD6BFD61F6A206AE0DE2C0EF66E78
:1003F000000EF76EF3DE010E1F6E206AD7DE400E90
:10040000F66E000EF76EEADE010E1E6E5DD701C0BD
:100410001DF01D3C01D04BD01DBE03D01D5009085E
:100420000CE31DC01EF0010E1F6E100E206EBEDE0E
:10043000300E1E241F6E216EC6DE1D500A0837E1E5
:1004400087D7010E1F6E080E206EB0DE520EF66EBC
:10045000000EF76EC3DE036A1E50006EE8BE030690
:100460001F6E03C020F0030E226EE80E216E03C043
:1004700024F01FC023F070D702C020F001C01FF08D
:1004800002C021F0212A2106D8B403D0226857DE09
:10049000FAD71FC022F053DE88D7010E1F6E080E58
:1004A000206E84DE560EF66E000EF76E97DEAED727
:0204B000030047
:020000040030CA
:0E00000027CC3E1E0087A1000FC00FE00F406E
:00000001FF
;PIC18F4550
;CRC=50FB  CREATED="05-Oct-22 14:50"
