:100000002CEF01F0296A295007080EE328BE02D020
:100010008D9401D08D84969496908D9096908D803D
:10002000D8902836292AEFD712001DC01EF01CC018
:100030001FF01EC028F0E6DF1FC028F0E3DF12002B
:100040001D6A1C6AF2DF1D6A1C6AEFDF1D6A1C6AEA
:10005000ECDF1D6A1C6AE9DF95968C8695968C9676
:1000600095988C8895988C98959A8C8A959A8C9A64
:10007000959E8C8E959E8C9E95948C8495948C9454
:100080001D681C68D2DF1D681C68CFDF959C8C8CB6
:10009000959C8C9C58EF00F0FF0E926E3C0E936E78
:1000A000F10E946E000E966E956E956A8C6AC8D7A6
:1000B000F19E066A056AC050C00B0209C06EC08E70
:1000C000C280C150C00B0C09C16E95908C904CEF52
:1000D00001F024C028F096DF25C028F093DF26C069
:1000E00028F090DF27C028F08DDF95988C889598B0
:1000F0008C988CEF00F01DC020F01CC021F01FC0B8
:1001000022F01EC023F020C024F021C025F022C020
:1001100026F023C027F0DDD71200EA6A1C0EE96E34
:10012000EF500DE0060E016E006A002EFED7012E84
:10013000FBD77B0E006E002EFED7EF2EF3D71200FA
:10014000938681B612D0140E1C6EE7DF938681B6BB
:100150000CD0196A186A1A1E1B1E1D6A1C6A1F6AB7
:100160001E6AC9DF938681A6FDD758EF01F0938AF6
:1001700081BA1ED0140E1C6ED0DF938A81BA18D0BB
:100180001D6A1C6A19C01FF018C01EF0B4DFC80E2B
:100190001C6EC3DFD89018341C6E19341D6E010E0E
:1001A0001C24186E000E1D20196E938A81AAFDD79B
:1001B000938881B816D0140E1C6EAFDF938881B877
:1001C00010D01D6A1C6A19C01FF018C01EF093DF02
:1001D000C80E1C6EA2DFD89019321832938881A8FD
:1001E000FDD75FEF01F0938A81BA1BD0140E1C6E0D
:1001F00094DF938A81BA15D01D6A1C6A19C01FF05A
:1002000018C01EF078DFC80E1C6E87DFD89019303A
:100210001D6E1830186E800E1D24196E938A81AAE7
:10022000FDD7938881B816D0140E1C6E76DF9388A4
:1002300081B810D01D6A1C6A19C01FF018C01EF0CA
:100240005ADFC80E1C6E69DFD890183619369388AD
:1002500081A8FDD75FEF01F0F86AD09EB886080E3E
:10026000AF6E020EB06EA60EAC6E900EAB6E046A50
:100270000B6A0C6A0D6A0E6A176AC150C00B0F092F
:10028000C16E070EB46E0F681068116812681368AB
:1002900014681568166800D7FF0E936E196A186AFD
:1002A0001B6A1A6A1D6A1C6A1F6A1E6A24DF48D705
:1002B0001A5204E11B5202E15AD701D094D7F7D762
:0202C000030039
:020000040030CA
:0E00000027CC3E1E0087A1000FC00FE00F406E
:00000001FF
;PIC18F4550
;CRC=C79F  CREATED="13-Sep-22 10:57"
