:10000000C0EF02F0F76A140FF66E000EF722090037
:10001000F55012000001020503040102200307034A
:10002000060602050303060602030304070307206E
:100030002007070606030304000606050304010162
:10004000072020070006020503040006020303043C
:100050002020202020200001200403200001020491
:100060002005070607202020202020200320F76AF3
:100070007E0FF66E000EF7220900F5501200070FF2
:100080001F1F1F1F1F1F1F1F1F00000000001C1E1F
:100090001F1F1F1F1F1F00000000001F1F1F1F1F0B
:1000A0001F1F1F1F1E1C1F1F1F1F1F1F0F071F1F8C
:1000B0001F0000001F1F1F1F1F1F1F1F1F1FF76A8A
:1000C000CE0FF66E000EF7220900F550120080C028
:1000D00094D4544855200000434C4F434B3A000001
:1000E000000E956E966E956A8C6804680568959208
:1000F0008C9295908C90086A076AD7EF02F033C013
:1001000035F0346A345007080EE335BE02D08D94C2
:1001100001D08D84969496908D9096908D80D890F5
:100120003536342AEFD71200956A8C6A04B802D0AB
:100130008C9801D08C88959804BC02D08C9C01D0FE
:100140008C8C959C04B402D08C9401D08C849594B2
:1001500095928C82BAEF00F010C033F0D0DF0FC060
:1001600033F0CDDF0EC033F0CADF0DC033F0C7DF90
:100170000494DAD795968C8695968C9695928C9267
:10018000C9EF00F031500E6E0E1E32C00DF00D1E84
:10019000E3D712001A801AC031F030C032F0F2DF1B
:1001A0001A901AC031F030C032F0ECDF12001A940D
:1001B0002FC030F0EFDF200E006E002EFED700D0F3
:1001C00000001200EA6A270EE96EEF500DE0060EFD
:1001D000016E006A002EFED7012EFBD77B0E006E4B
:1001E000002EFED7EF2EF3D710EF01F01A901A92DF
:1001F0001A841A96380E2F6EDADF420E006E002E29
:10020000FED700000C0E2F6ED2DF420E006E002EC5
:10021000FED70000010E2F6ECADF020E276ED2D766
:10022000060E2F6EC4DF420E006E002EFED70000B9
:10023000D8EF02F01A842CC030F0ACDF200E006E34
:10024000002EFED700D0000012000900F5520CE08D
:10025000F6CF27F0F7CF28F0F5CF2CF0EBDF27C053
:10026000F6FF28C0F7FFF1D7E0EF02F0080E016EAD
:10027000050E006E002EFED78A929392060E006E37
:10028000002EFED727368A90D8B09380D8A09390BE
:10029000938281A2FED7012EEBD7050E006E002EB1
:1002A000FED78A92939200009380060E006E002E75
:1002B000FED7060E006E002EFED7938281A2FED7D7
:1002C000016A060E006E002EFED781B001808A9270
:1002D00093928A9093901200080E286E00C029F025
:1002E0009380060E006E002EFED7938281A2FED769
:1002F00081B0D88081A0D8900136050E006E002E06
:10030000FED793928A92282EEBD79380060E006E2A
:10031000002EFED78A902950D8A493900000938293
:1003200081A2FED7050E006E002EFED78A92939210
:10033000060E006E002EFED78A90939012009380D6
:10034000050E006E002EFED79382060E006E002E64
:10035000FED78A909390050E006E002EFED78A92EB
:100360009392D00E276E82DF276A80DF9380050E7E
:10037000006E002EFED79382060E006E002EFED772
:1003800081A2FED78A909390050E006E002EFED7B4
:100390008A929392D10E276E69DF010E006E9CDF68
:1003A00001C021F0010E006E97DF01C020F0010EA8
:1003B000006E92DF01C01FF0010E006E8DDF01C0E4
:1003C0001EF0010E006E88DF01C01DF0010E006EF0
:1003D00083DF01C01CF0010E006E7EDF01C01BF048
:1003E000010E006E79DF01C023F0006A75DF01C0E5
:1003F00022F093900000938281A2FED7050E006E3A
:10040000002EFED700D000009380050E006E002E57
:10041000FED71200036A2C50F2CF2EF0F29E4FDE70
:100420002EBEF28E2D242E6E2F6EC1DE1200006ABB
:10043000016A2B50D8902CB00026003201322CB229
:100440000026003201322CB40026003201322CB6D4
:100450000026003201322CB80026003201322CBABC
:100460000026003201322CBC0026003201322CBEA4
:1004700000260032013257EF02F029C02CF02AC0CA
:100480002DF0C8DF266A26BE03D02650050824E3D7
:100490002650030807E1010E29242B6E2C6E2AC07A
:1004A0002DF0B8DF28C02BF0060E2C6EC0D70150FF
:1004B0002C6A2B6E036A26502B24016E2C500322CB
:1004C0000150F2CF2BF0F29E9DDD2BBEF28E2B6EF3
:1004D0002C6EB0DE262AD7D71200400E2F6E67DEB4
:1004E000266A26BE03D026503F080DE3036A265035
:1004F000F2CF27F0F29EBBDD27BEF28E276E2C6E68
:1005000099DE262AEED71F38276E0F0E271627C032
:1005100028F0020E296E2A6AB0DF1F500F0B276EDB
:10052000286E020E296E030E2A6EA7DF2038276E72
:100530000F0E271627C028F0020E296E070E2A6E0E
:100540009CDF20500F0B276E286E020E296E0A0EBC
:100550002A6E93DF2138276E0F0E271627C028F04A
:10056000020E296E0E0E2A6E88DF21500F0B276EA9
:10057000286E020E296E110E2A6E7FDFE3EF02F065
:10058000F86AD09E066A0D6A0E6A0F6A106A196AC6
:10059000C150C00B0F09C16E070EB46E116812680E
:1005A00013681468156816681768186899D51ED6F8
:1005B000800E2F6EFCDDD80EF66E000EF76E45D65F
:0A05C000BEDEBDDE8AD7FDD70300C2
:020000040030CA
:0E00000027CC3E1E0087A1000FC00FE00F406E
:00000001FF
;PIC18F4550
;CRC=9181  CREATED="03-Dec-22 10:44"
