:1000000005EF02F0F76A140FF66E000EF7220900F2
:10001000F5501200C0F9A4B0999282F880908883BC
:10002000C6A1868E2F6A2F5007080EE32EBE02D07F
:100030008D9401D08D84969496908D9096908D801D
:10004000D8902E362F2AEFD712001FC020F01EC0E6
:1000500021F020C02EF0E6DF21C02EF0E3DF1200F9
:100060001F6A1E6AF2DF1F6A1E6AEFDF1F6A1E6ABE
:10007000ECDF1F6A1E6AE9DF95968C8695968C9652
:1000800095988C8895988C98959A8C8A959A8C9A44
:10009000959E8C8E959E8C9E95948C8495948C9434
:1000A0001F681E68D2DF1F681E68CFDF959C8C8C8E
:1000B000959C8C9C68EF00F0FF0E926E3C0E936E48
:1000C000F10E946E000E966E956E956A8C6AC8D786
:1000D000F19E066A056AC050C00B0209C06EC08E50
:1000E000C280C150C00B0C09C16E95908C9027EF57
:1000F00002F0EA6A1E0EE96EEF500DE0060E016E88
:10010000006A002EFED7012EFBD77B0E006E002E5C
:10011000FED7EF2EF3D79EEF01F08E0E006E1FC0BC
:1001200001F01EC002F0036A015209E102C001F0B1
:10013000026A080E005E015202E1006A08D0D890FF
:1001400001BE04D0023601360006F9D7019EB7EF92
:1001500001F01E50D8B4A5D02A6E2250D8B4A1D038
:100160002A5E05E37F0E2A26D8B09BD006D0810EEA
:100170002A5ED8A096D0D8B494D02AC000F0016AE4
:10018000026A036A296A1FC028F0288E20C027F05F
:1001900021C026F0190E2A6E2550265E0DE2010EB2
:1001A000275E0AE2285E08E2295E06E2292A282A5A
:1001B000272A2550262628D02450275E12E2010E39
:1001C000285E0FE2295E0DE2292A282A24502726DC
:1001D0002550262619E3272A17E1282A15E1292A7E
:1001E00013D023508009285E0EE2010E295E0BE237
:1001F000292A23508009282624502726E9E3282A83
:10020000E7E1292AE5D703802A2E01D00BD0D89028
:100210002636273628362936D89003360236013658
:100220002B36BAD72BA006D0D89001320232033237
:100230002B3202D0000635E02BBE1ED0D8902636D9
:100240002736283629362550265E07E2010E275E1E
:1002500004E2285E02E2295E1AE32450275E05E2EA
:10026000010E285E02E2295E12E323508009285E17
:1002700003E2010E295E0BE3032A09E1022A07E1EA
:10028000012A05E1002A0DE00132023203321FC0CB
:100290002AF023502A1A2AAE02D0018E06D0019EDF
:1002A00004D0006A016A026A036AC8EF01F08E0E88
:1002B000006E1E50005E1FC002F020C001F0028ED2
:1002C000005209E0D890025202E1015204E00232E9
:1002D0000132002EF7D71FAE05D0011E021E012AE3
:1002E000D8B4022AD1EF01F0016A026A006A036AF7
:1002F0002A5002E1295018E0100E2B6ED8902736B4
:100300002836003603362A50035C02E12950005C8F
:1003100007E32950005ED8A003062A50035ED88068
:10032000013602362B2EEAD71200000E016EC250A3
:10033000C30B0110C26E010E1E6EDBD61B6A1A6A59
:10034000186A1950185C0EE2C282C2B2FED7C350BE
:100350001A26C4501B22A60E006E002EFED70000E7
:10036000182AEFD71BC01FF01AC01EF0D6D603C044
:1003700021F002C020F001C01FF000C01EF0AA0E44
:10038000256EF10E246E020E236E800E226EE1D6D3
:1003900003C021F002C020F001C01FF000C01EF019
:1003A00086D702C01BF001C01AF01BC028F01AC08B
:1003B00027F02A6A19C029F097DF02C01BF001C09C
:1003C0001AF032EF02F0D6501C6ED7CF1DF0010E9E
:1003D0001F241D5202E11C5C04E3010E1E24D76A97
:1003E000D66E36EF02F02DC02EF01CDE2CC02EF0A3
:1003F00019DE2BC02EF016DE2AC02EF013DE959CDF
:100400008C9C959C8C8C97EF02F0F86AD09EB886F5
:10041000080EAF6E020EB06EA60EAC6E900EAB6EF6
:10042000046A0B6A0C6A0D6A0E6A176A640E196E0A
:10043000C150C00B0F09C16E070EB46E0F68106873
:1004400011681268136814681568166835D6C050AC
:10045000C00B0209C06EC08EC280C150C00B0D0916
:10046000C16E63D71E6A630E1F6EADD71DC028F024
:100470001CC027F02A6A0A0E296E36DF02C01FF060
:1004800001C01EF002C003F00150F2CF20F0F29E36
:10049000B9DD20BEF28E206E1DC028F01CC027F0F2
:1004A0002A6A0A0E296E20DF00C021F003C022F064
:1004B00003C003F00050F2CF23F0F29EA3DD23BE71
:1004C000F28E7F0B236E1BC028F01AC027F02A6A19
:1004D0000A0E296E09DF02C025F001C024F002C017
:1004E00003F00150F2CF26F0F29E8CDD26BEF28E94
:1004F000266E1BC028F01AC027F02A6A0A0E296E41
:10050000F3DE00C027F003C028F003C003F0005062
:10051000F2CF29F0F29E76DD29BEF28E296E20C040
:100520002AF023C02BF026C02CF02D6E5CD799D773
:020530000300C6
:020000040030CA
:0E00000027CC3E1E0087A1000FC00FE00F406E
:00000001FF
;PIC18F4550
;CRC=52EB  CREATED="08-Nov-22 10:49"
