:100000008FEF00F01E6A1E5007080EE31DBE02D0DF
:100010008D9401D08D84969496908D9096908D803D
:10002000D8901D361E2AEFD712001AC01BF019C037
:100030001CF01BC01DF0E6DF1CC01DF0E3DF12004A
:100040001A6A196AF2DF1A6A196AEFDF1A6A196AFC
:10005000ECDF1A6A196AE9DF95968C8695968C967C
:1000600095988C8895988C98959A8C8A959A8C9A64
:10007000959E8C8E959E8C9E95948C8495948C9454
:100080001A681968D2DF1A681968CFDF959C8C8CC2
:10009000959C8C9C58EF00F0FF0E926E3C0E936E78
:1000A000F10E946E000E966E956E956A8C6AC8D7A6
:1000B000F19E066A056AC050C00B0209C06EC08E70
:1000C000C280C150C00B0C09C16E95908C90AFEFEF
:1000D00000F019C01DF096DF1AC01DF093DF1BC0A1
:1000E0001DF090DF1CC01DF08DDF95988C889598D1
:1000F0008C98B7EF00F0EA6A190EE96EEF500DE048
:10010000060E016E006A002EFED7012EFBD77B0E75
:10011000006E002EFED7EF2EF3D7BAEF00F0F86A8C
:10012000D09EB886080EAF6E020EB06EA60EAC6EF4
:10013000900EAB6E046A0B6A0C6A0D6A0E6A176A3F
:10014000C150C00B0F09C16E070EB46E0F68106866
:100150001168126813681468156816689DD7186AC4
:10016000196A1A6A18C01BF018C01CF0B2D7C80E62
:0A017000196EC1D7181EF4D7030062
:020000040030CA
:0E00000027CC3E1E0087A1000FC00FE00F406E
:00000001FF
;PIC18F4550
;CRC=F578  CREATED="23-Aug-22 10:46"
