:1000000076EF01F0F76A140FF66E000EF722090082
:10001000F550120080C094D4646F6E6720686F3A08
:100020000000246A245007080EE323BE02D08D94FA
:1000300001D08D84969496908D9096908D80D890D6
:100040002336242AEFD712001DC01EF01CC01FF05B
:100050001EC023F0E6DF1FC023F0E3DF12001D6A9D
:100060001C6AF2DF1D6A1C6AEFDF1D6A1C6AECDF86
:100070001D6A1C6AE9DF95968C8695968C969598F4
:100080008C8895988C98959A8C8A959A8C9A959E3E
:100090008C8E959E8C9E95948C8495948C941D68E2
:1000A0001C68D2DF1D681C68CFDF959C8C8C959CEA
:1000B0008C9C67EF00F0FF0E926E3C0E936EF10E7B
:1000C000946E000E966E956E956A8C6AC8D7F19EF6
:1000D000066A056AC050C00B0209C06EC08EC2809D
:1000E000C150C00B0C09C16E95908C9096EF01F039
:1000F0000EC023F096DF0DC023F093DF0CC023F079
:1001000090DF0BC023F08DDF95948C8495948C94B4
:1001100091EF00F021500C6E0C1E22C00BF00B1E54
:10012000E7D71200188018C021F020C022F0F2DFBB
:10013000189018C021F020C022F0ECDF12001894B3
:100140001FC020F0EFDF200E006E002EFED700D083
:1001500000001200EA6A1C0EE96EEF500DE0060E78
:10016000016E006A002EFED7012EFBD77B0E006EBB
:10017000002EFED7EF2EF3D7120018901892188495
:100180001896380E1F6EDBDF420E006E002EFED773
:1001900000000C0E1F6ED3DF420E006E002EFED745
:1001A0000000010E1F6ECBDF020E1C6ED3DF060EA9
:1001B0001F6EC5DF420E006E002EFED7000097EFC7
:1001C00001F0036A1C50F2CF1EF0F29E1BDF1EBE30
:1001D000F28E1D241E6E1F6EB2DF120018841EC028
:1001E00020F0A0DF200E006E002EFED700D0000011
:1001F00012000900F5520CE0F6CF1CF0F7CF1DF00D
:10020000F5CF1EF0EBDF1CC0F6FF1DC0F7FFF1D7E6
:100210009FEF01F01C501D18800B1F6E1CAE02D00A
:100220001C1E1C2A1DAE02D01D1E1D2A1D50016A57
:100230001C5C03E21CC000F00CD0006A080E1E6EAD
:100240001C3600361D50005CD8B0006E01361E2EE4
:10025000F7D71FAE02D0011E012A12001C6A0C0E35
:100260001D6EAFDF19C01CF00A0E1D6ED3DF300EFD
:1002700001241C6E1E6EB2DF19C01CF00A0E1D6E2A
:10028000C9DF300E00241C6E1E6EA8DF200E1E6E0D
:10029000A5DF1AC01CF00A0E1D6EBCDF300E012453
:1002A0001C6E1E6E9BDF1AC01CF00A0E1D6EB2DFA4
:1002B000300E00241C6E1E6E91DF200E1E6E8EDF2F
:1002C0001BC01CF00A0E1D6EA5DF300E01241C6E33
:1002D0001E6E84DF1BC01CF00A0E1D6E9BDF300EED
:1002E00000241C6E1E6E7ADFA3EF01F0F86AD09E28
:1002F000B886080EAF6E020EB06EA60EAC6E900EF3
:10030000AB6E046A0B6A0C6A0D6A0E6A176AC150FA
:10031000C00B0F09C16E070EB46E0F68106811682C
:1003200012681368146815681668C5D626D71C6A43
:100330001D6A47DF180EF66E000EF76E5AD71B6A5D
:100340001A6A196A8BD7C80E1C6E04DF1B2A1B5051
:100350003C080BE11B6A1A2A1A503C0802E11A6A8F
:0E036000192A1950180801E1196AECD7030098
:020000040030CA
:0E00000027CC3E1E0087A1000FC00FE00F406E
:00000001FF
;PIC18F4550
;CRC=5CE2  CREATED="18-Oct-22 08:37"
