:100000003AEF01F0346A345007080EE333BE02D0F1
:100010008D9401D08D84969496908D9096908D803D
:10002000D8903336342AEFD7120023C024F022C0F0
:1000300025F024C033F0E6DF25C033F0E3DF120003
:10004000236A226AF2DF236A226AEFDF236A226AC6
:10005000ECDF236A226AE9DF95968C8695968C966A
:1000600095988C8895988C98959A8C8A959A8C9A64
:10007000959E8C8E959E8C9E95948C8495948C9454
:1000800023682268D2DF23682268CFDF959C8C8C9E
:10009000959C8C9C58EF00F0FF0E926E3C0E936E78
:1000A000F10E946E000E966E956E956A8C6AC8D7A6
:1000B000F19E066A056AC050C00B0209C06EC08E70
:1000C000C280C150C00B0C09C16E95908C905AEF44
:1000D00001F02FC033F096DF30C033F093DF31C032
:1000E00033F090DF32C033F08DDF95988C8895988F
:1000F0008C988CEF00F028C02BF027C02CF02AC081
:100100002DF029C02EF02BC02FF02CC030F02DC0C8
:1001100031F02EC032F0DDD71200EA6A250EE96E0A
:10012000EF500DE0060E016E006A002EFED7012E84
:10013000FBD77B0E006E002EFED7EF2EF3D7A8EF75
:1001400000F0246A2350245C05E20A0E256EE5D7F0
:10015000242AF8D7120021500F0828E319C024F0F0
:1001600018C023F01DC026F01CC025F019C028F0CF
:1001700018C027F01DC02AF01CC029F0BCDFD890A1
:100180001F30276E1E30266E1D30256E1C301C6EF3
:10019000800E25241D6E000E26201E6E000E2720C8
:1001A0001F6E22C023F0CDDF212A19D0216A1F6AD9
:1001B0001E6A1D6A1C6A19C024F018C023F01DC0F5
:1001C00026F01CC025F019C028F018C027F01DC06B
:1001D0002AF01CC029F08FDF22C023F0B2DF67EFC6
:1001E00001F0205009082BE319C024F018C023F0B7
:1001F0001DC026F01CC025F019C028F018C027F03B
:100200001DC02AF01CC029F076DFD8901834246E67
:100210001934256E1A34266E1B34276E010E2424E1
:10022000186E000E2520196E000E26201A6E000E84
:1002300027201B6E22C023F084DF202A19D0206AD9
:100240001B6A1A6A196A186A19C024F018C023F0C8
:100250001DC026F01CC025F019C028F018C027F0DA
:100260001DC02AF01CC029F046DF22C023F069DF40
:100270006AEF01F0F86AD09EB886080EAF6E020EE3
:10028000B06EA60EAC6E900EAB6E046A0B6A0C6A72
:100290000D6A0E6A176AC150C00B0F09C16E070EB6
:1002A000B46E0F68106811681268136814681568D6
:1002B0001668F2D61B6A1A6A196A186A1F6A1E6AD9
:1002C0001D6A1C6A206A216A020E226E44D7020E41
:0802D000226E87D7F9D7030065
:020000040030CA
:0E00000027CC3E1E0087A1000FC00FE00F406E
:00000001FF
;PIC18F4550
;CRC=10E1  CREATED="06-Sep-22 09:52"
