:1000000086EF02F0F76A140FF66E000EF722090071
:10001000F5501200C0F9A4B0999282F880908883BC
:10002000C6A1868E306A305007080EE32FBE02D07C
:100030008D9401D08D84969496908D9096908D801D
:10004000D8902F36302AEFD7120020C021F01FC0E1
:1000500022F021C02FF0E6DF22C02FF0E3DF1200F4
:10006000206A1F6AF2DF206A1F6AEFDF206A1F6AB8
:10007000ECDF206A1F6AE9DF95968C8695968C9650
:1000800095988C8895988C98959A8C8A959A8C9A44
:10009000959E8C8E959E8C9E95948C8495948C9434
:1000A00020681F68D2DF20681F68CFDF959C8C8C8A
:1000B000959C8C9C68EF00F0FF0E926E3C0E936E48
:1000C000F10E946E000E966E956E956A8C6AC8D786
:1000D000F19E066A056AC050C00B0209C06EC08E50
:1000E000C280C150C00B0C09C16E95908C90A9EFD5
:1000F00002F0EA6A1F0EE96EEF500DE0060E016E87
:10010000006A002EFED7012EFBD77B0E006E002E5C
:10011000FED7EF2EF3D712008E0E006E20C001F036
:100120001FC002F0036A015209E102C001F0026A35
:10013000080E005E015202E1006A08D0D89001BEAC
:1001400004D0023601360006F9D7019E12001F5076
:10015000D8B4A5D02B6E2350D8B4A1D02B5E05E324
:100160007F0E2B26D8B09BD006D0810E2B5ED8A058
:1001700096D0D8B494D02BC000F0016A026A036A0A
:100180002A6A20C029F0298E21C028F022C027F039
:10019000190E2B6E2650275E0DE2010E285E0AE234
:1001A000295E08E22A5E06E22A2A292A282A2650FF
:1001B000272628D02550285E12E2010E295E0FE284
:1001C0002A5E0DE22A2A292A25502826265027268B
:1001D00019E3282A17E1292A15E12A2A13D02450E5
:1001E0008009295E0EE2010E2A5E0BE22A2A2450C3
:1001F0008009292625502826E9E3292AE7E12A2A29
:10020000E5D703802B2E01D00BD0D8902736283687
:1002100029362A36D8900336023601362C36BAD71C
:100220002CA006D0D8900132023203322C3202D0F8
:10023000000635E02CBE1ED0D89027362836293649
:100240002A362650275E07E2010E285E04E2295E68
:1002500002E22A5E1AE32550285E05E2010E295EBD
:1002600002E22A5E12E324508009295E03E2010EB5
:100270002A5E0BE3032A09E1022A07E1012A05E1CC
:10028000002A0DE001320232033220C02BF024504C
:100290002B1A2BAE02D0018E06D0019E04D0006A2C
:1002A000016A026A036A12008E0E006E1F50005E21
:1002B00020C002F021C001F0028E005209E0D89067
:1002C000025202E1015204E002320132002EF7D75D
:1002D00020AE05D0011E021E012AD8B4022A120047
:1002E000016A026A006A036A2B5002E12A5018E090
:1002F000100E2C6ED89028362936003603362B5037
:10030000035C02E12A50005C07E32A50005ED8A09B
:1003100003062B50035ED880013602362C2EEAD716
:100320001200000E016EC250C30B0110C26E010E0E
:100330001F6EDFDE1B6A1A6A186A1950185C0EE21B
:10034000C282C2B2FED7C3501A26C4501B22A60EC8
:10035000006E002EFED70000182AEFD71BC020F039
:100360001AC01FF0D9DE03C022F002C021F001C084
:1003700020F000C01FF0AA0E266EF10E256E020EB0
:10038000246E800E236EE3DE03C022F002C021F053
:1003900001C020F000C01FF087DF02C01BF001C0C9
:1003A0001AF01BC029F01AC028F02B6A19C02AF0D5
:1003B00097DF02C01BF001C01AF0B4EF02F0040E88
:1003C000016EC250C30B0110C26E010E1F6E91DE92
:1003D0001D6A1C6A186A1950185C0EE2C282C2B209
:1003E000FED7C3501C26C4501D22A60E006E002E40
:1003F000FED70000182AEFD71DC020F01CC01FF048
:100400008BDE03C022F002C021F001C020F000C04A
:100410001FF0AA0E266EF10E256E020E246E800EBF
:10042000236E95DE03C022F002C021F001C020F04F
:1004300000C01FF039DF02C01DF001C01CF01DC05C
:1004400029F01CC028F02B6A19C02AF049DF02C02D
:100450001DF001C01CF0B5EF02F01FC02FF0E2DD6F
:1004600020C02FF0DFDD21C02FF0DCDD22C02FF017
:10047000D9DD95988C8895988C9812001B5208E1CC
:100480001A50280805E31D5203E11C50280807E212
:100490001E801F6A206A216A2268DFDF12D01B5289
:1004A00010E11A5027080DE31D520BE11C502708DC
:1004B00008E31EA006D01E901F6A206A216A226AE5
:1004C000CCDF1B520FE11A5022080CE31D520AE147
:1004D0001C50220807E31EB005D01F68206A216A5D
:1004E000226ABBDFB6EF02F02EC02FF09BDD2DC0DD
:1004F0002FF098DD2CC02FF095DD2BC02FF092DD72
:10050000959C8C9C959C8C8C17EF03F0F86AD09E80
:10051000B886080EAF6E020EB06EA60EAC6E900ED0
:10052000AB6E046A0B6A0C6A0D6A0E6A176A640E77
:10053000196E1E90C150C00B0F09C16E070EB46E2C
:100540000F681068116812681368146815681668D7
:10055000B3D5C050C00B0209C06EC08EC280C1505E
:10056000C00B0D09C16EDDD62AD788D71DC029F072
:100570001CC028F02B6A0A0E2A6EB2DE02C020F0E0
:1005800001C01FF002C003F00150F2CF21F0F29E33
:1005900039DD21BEF28E216E1DC029F01CC028F06D
:1005A0002B6A0A0E2A6E9CDE00C022F003C023F0E4
:1005B00003C003F00050F2CF24F0F29E23DD24BEEE
:1005C000F28E7F0B246E1BC029F01AC028F02B6A14
:1005D0000A0E2A6E85DE02C026F001C025F002C098
:1005E00003F00150F2CF27F0F29E0CDD27BEF28E11
:1005F000276E1BC029F01AC028F02B6A0A0E2A6E3B
:100600006FDE00C028F003C029F003C003F00050E3
:10061000F2CF2AF0F29EF6DC2ABEF28E2A6E21C0BC
:100620002BF024C02CF027C02DF02E6E5DD79BD769
:020630000300C5
:020000040030CA
:0E00000027CC3E1E0087A1000FC00FE00F406E
:00000001FF
;PIC18F4550
;CRC=636D  CREATED="08-Nov-22 10:35"
