:1000000015EF01F0F76A140FF66E000EF7220900E3
:10001000F5501200C0F9A4B0999282F880908883BC
:10002000C6A1868E266A265007080EE325BE02D09A
:100030008D9401D08D84969496908D9096908D801D
:10004000D8902536262AEFD712001DC01EF01CC0FE
:100050001FF01EC025F0E6DF1FC025F0E3DF120011
:100060001D6A1C6AF2DF1D6A1C6AEFDF1D6A1C6ACA
:10007000ECDF1D6A1C6AE9DF95968C8695968C9656
:1000800095988C8895988C98959A8C8A959A8C9A44
:10009000959E8C8E959E8C9E95948C8495948C9434
:1000A0001D681C68D2DF1D681C68CFDF959C8C8C96
:1000B000959C8C9C68EF00F0FF0E926E3C0E936E48
:1000C000F10E946E000E966E956E956A8C6AC8D786
:1000D000F19E066A056AC050C00B0209C06EC08E50
:1000E000C280C150C00B0C09C16E95908C9035EF49
:1000F00001F0016A026A006A036A235002E1225099
:1001000018E0100E246ED8902036213600360336C3
:100110002350035C02E12250005C07E32250005EA2
:10012000D8A003062350035ED88001360236242E61
:10013000EAD7120024C025F075DF23C025F072DF56
:1001400022C025F06FDF21C025F06CDF959C8C9CD0
:10015000959C8C8CB4EF00F021681EC022F01FC06B
:1001600023F020C024F0E6D713EF01F01DC021F0EA
:100170001CC020F0236A0A0E226EBBDF00C01EF0F6
:1001800003C01FF003C003F00050F2CF20F0F29E36
:1001900039DF20BEF28E196E1DC021F01CC020F088
:1001A000236A0A0E226EA5DF02C01FF001C01EF0F6
:1001B00002C021F001C020F0236A0A0E226E99DFEE
:1001C00000C01EF003C01FF003C003F00050F2CFC8
:1001D00020F0F29E17DF20BEF28E1A6E1DC021F0B5
:1001E0001CC020F0236A640E226E83DF02C01FF061
:1001F00001C01EF002C003F00150F2CF20F0F29EC9
:1002000001DF20BEF28E1B6E1B50C00805E11B688B
:100210001A50C00801E11A681BC01EF01AC01FF076
:1002200019C020F099D740EF01F0F86AD09EB88647
:10023000080EAF6E020EB06EA60EAC6E900EAB6ED8
:10024000046A0B6A0C6A0D6A0E6A176AC150C00B09
:100250000F09C16E070EB46E0F681068116812683E
:10026000136814681568166827D7E80ED56ED76A24
:10027000F00ED66ED650186E1D6A18C01CF076D7D8
:0E028000185203E1D76AF10ED66EF4D70300D0
:020000040030CA
:0E00000027CC3E1E0087A1000FC00FE00F406E
:00000001FF
;PIC18F4550
;CRC=89B9  CREATED="27-Sep-22 09:15"
