:1000000079EF00F0000E956E966E956A8C68046824
:10001000056895928C9295908C90086A076A90EF8B
:1000200000F029C02BF02A6A2A5007080EE32BBEE5
:1000300002D08D9401D08D84969496908D90969058
:100040008D80D8902B362A2AEFD71200956A8C6AB9
:1000500004B802D08C9801D08C88959804BC02D04A
:100060008C9C01D08C8C959C04B402D08C9401D0D3
:100070008C84959495928C824CEF00F025C029F0E9
:10008000D0DF26C029F0CDDF27C029F0CADF28C085
:1000900029F0C7DF0498DAD7959A8C8A959A8C9ABA
:1000A00095928C9265EF00F01EC021F01DC022F0E9
:1000B00020C023F01FC024F021C025F022C026F06C
:1000C00023C027F024C028F0D9D71200EA6A1E0EF8
:1000D000E96EEF500DE0060E016E006A002EFED7AD
:1000E000012EFBD77B0E006E002EFED7EF2EF3D72E
:1000F0001200F86AD09E066A0D6A0E6A0F6A106ACC
:10010000196AC150C00B0F09C16E070EB46E116899
:10011000126813681468156816681768186872D72B
:100120001B6A1A6A1C6A1C500F081EE31BC01EF0D3
:100130001AC01DF01BC020F01AC01FF0B5DF020E60
:100140001D6E960E1E6EC2DF1D2EFBD7D8901A3480
:100150001D6E1B341E6E010E1D241A6E000E1E2015
:100160001B6E010E1C26DFD71C6A1C500F0815E3FE
:100170001BC01EF01AC01DF01BC020F01AC01FF0DB
:1001800093DF020E1D6E960E1E6EA0DF1D2EFBD796
:0E019000D8901A361B361C2AE8D7C4D70300B5
:020000040030CA
:0E00000027CC3E1E0087A1000FC00FE00F406E
:00000001FF
;PIC18F4550
;CRC=98A1  CREATED="29-Aug-22 21:04"
