:10000000F5EF00F0F76A140FF66E000EF722090004
:10001000F5501200C0F9A4B0999282F880908883BC
:10002000C6A1868E246A245007080EE323BE02D0A0
:100030008D9401D08D84969496908D9096908D801D
:10004000D8902336242AEFD712001DC01EF01CC002
:100050001FF01EC023F0E6DF1FC023F0E3DF120015
:100060001D6A1C6AF2DF1D6A1C6AEFDF1D6A1C6ACA
:10007000ECDF1D6A1C6AE9DF95968C8695968C9656
:1000800095988C8895988C98959A8C8A959A8C9A44
:10009000959E8C8E959E8C9E95948C8495948C9434
:1000A0001D681C68D2DF1D681C68CFDF959C8C8C96
:1000B000959C8C9C68EF00F0FF0E926E3C0E936E48
:1000C000F10E946E000E966E956E956A8C6AC8D786
:1000D000F19E066A056AC050C00B0209C06EC08E50
:1000E000C280C150C00B0C09C16E95908C9015EF69
:1000F00001F0016A026A006A036A235002E1225099
:1001000018E0100E246ED8902036213600360336C3
:100110002350035C02E12250005C07E32250005EA2
:10012000D8A003062350035ED88001360236242E61
:10013000EAD7120022C023F075DF21C023F072DF5E
:1001400020C023F06FDF1FC023F06CDF959C8C9CD8
:10015000959C8C8CF3EF00F01DC021F01CC020F0AA
:10016000236A0A0E226EC5DF00C01EF003C01FF016
:1001700003C003F00050F2CF20F0F29E43DF20BE18
:10018000F28E196E1DC021F01CC020F0236A0A0EE9
:10019000226EAFDF02C01FF001C01EF002C021F0CE
:1001A00001C020F0236A0A0E226EA3DF00C01EF0F9
:1001B00003C01FF003C003F00050F2CF20F0F29E06
:1001C00021DF20BEF28E1A6E1A50C00801E11A68B3
:1001D00019507F0B1E6E1AC01FF0206E920E216EFA
:1001E0008C0E226EA7D71EEF01F0F86AD09EB8865B
:1001F000080EAF6E020EB06EA60EAC6E900EAB6E19
:10020000046A0B6A0C6A0D6A0E6A176AC150C00B49
:100210000F09C16E070EB46E0F681068116812687E
:10022000136814681568166847D7D76AD66A1B9092
:10023000D650186E1D6A18C01CF08ED71BB003D0A4
:10024000E80ED56E03D01BA001D0D56A1850640803
:0C02500003E2D76A010ED66EEBD7030064
:020000040030CA
:0E00000027CC3E1E0087A1000FC00FE00F406E
:00000001FF
;PIC18F4550
;CRC=CC8A  CREATED="18-Oct-22 08:29"
