:1000000001EF01F0000E956E966E956A8C6804689B
:10001000056895928C9295908C90086A076A4AEFD1
:1000200001F095C097F0966B965107080EE397BFC5
:1000300002D08D9401D08D84969496908D90969058
:100040008D80D8909737962BEFD71200956A8C6ADF
:1000500004B802D08C9801D08C88959804BC02D04A
:100060008C9C01D08C8C959C04B402D08C9401D0D3
:100070008C84959495928C824CEF00F010C095F092
:10008000D0DF0FC095F0CDDF0EC095F0CADF0DC0F8
:1000900095F0C7DF0494DAD795968C8695968C9662
:1000A00095928C925BEF00F093510E6E0E1E94C0F1
:1000B0000DF00D1EE3D712001A801AC093F092C003
:1000C00094F0F2DF1A901AC093F092C094F0ECDF33
:1000D00012001A9490C092F0EFDF200E006E002EF6
:1000E000FED700D000001200EA6A900EE96EEF50D1
:1000F0000DE0060E016E006A002EFED7012EFBD722
:100100007B0E006E002EFED7EF2EF3D712001A9052
:100110001A921A841A96380E906FDBDF420E006E28
:10012000002EFED700000C0E906FD3DF420E006E43
:10013000002EFED70000010E906FCBDF020E906FF5
:10014000D3DF060E906FC5DF420E006E002EFED785
:1001500000004BEF01F01A8491C092F0ADDF200E49
:10016000006E002EFED700D00000EFEF00F0036A13
:1001700092519025E96E91510320EA6EEF5202E010
:10018000922BF5D792C001F0FAEF00F08D5303E106
:10019000800E906F9EDF8D2D03D0C00E906F99DF83
:1001A0008D51020803E1940E906F93DF8D51030887
:1001B00003E1D40E906F8DDF8E6B8EC08FF0140E26
:1001C0008E258F5D0EE2036A8F518B25E96E8C516F
:1001D0000320EA6EEFCF90F090C091F0BCD78F2B48
:1001E000EED7640E906F80DF8E2B8CC091F08BC0A9
:1001F00090F0BDD7140E015C010F8E5D01E18E6B96
:100200001200F86AD09E066A0D6A0E6A0F6A106ABA
:10021000196AC150C00B0F09C16E070EB46E1AD017
:10022000084011FF14401B200F804E475559454E82
:10023000204D494E482054524914C02001800014DA
:10024000C020088031393136313330361BC02001AF
:1002500080000000000EF86E020EF76E200EF66EA3
:100260000900F550006E000A13E00900F550016E18
:10027000E8BE05D00F0BEA6E0900F5CFE9FF01BC1F
:10028000090001AC0900F5CFEEFF004EE9D7F9D720
:10029000F86AB8D63CD78C6B1B0E8B6F020E8D6F35
:1002A00075DF8C6B530E8B6F030E8D6F6FDFF3D783
:0202B000030049
:020000040030CA
:0E00000027CC3E1E0087A1000FC00FE00F406E
:00000001FF
;PIC18F4550
;CRC=84C2  CREATED="26-Oct-22 21:39"
